:0E0000000C9471010C949E010C9400000C9461
:10000E0000000C9400000C9400000C9400000C9462
:10001E0000000C9400000C9400000C9400000C9452
:10002E00FB010C9400000C94AA010C9400000C949B
:10003E0000000C9400000C9400000C9400000C9432
:10004E0000000C9400000507206000000000000076
:10005E00005F00000007000700147F147F14242A9D
:10006E007F2A122313086462364955225000050375
:10007E000000001C2241000041221C00082A1C2AFC
:10008E000808083E08080050300000080808080854
:10009E00003030000020100804023E5149453E0059
:1000AE00427F400042615149462141454B3118146F
:1000BE00127F1027454545393C4A4949300171099F
:1000CE0005033649494936064949291E0036360088
:1000DE0000005636000000081422411414141414A3
:1000EE0041221408000201510906324979413E7E2F
:1000FE001111117E7F494949363E414141227F41CE
:10010E0041221C7F494949417F090901013E414174
:10011E0051327F0808087F00417F41002040413F57
:10012E00017F081422417F404040407F0204027F3D
:10013E007F0408107F3E4141413E7F090909063E7A
:10014E004151215E7F09192946464949493101012C
:10015E007F01013F4040403F1F2040201F7F20185D
:10016E00207F631408146303047804036151494526
:10017E004300007F4141020408102041417F0000EE
:10018E0004020102044040404040000102040020ED
:10019E00545454787F4844443838444444203844B6
:1001AE0044487F3854545418087E090102081454E8
:1001BE00543C7F0804047800447D40002040443DB8
:1001CE0000007F10284400417F40007C0418047812
:1001DE007C0804047838444444387C141414080809
:1001EE001414187C7C080404084854545420043F0A
:1001FE004440203C4040207C1C2040201C3C403091
:10020E00403C44281028440C5050503C4464544CFC
:10021E0044000836410000007F000000413608000F
:10022E0002010204027F4141417F000103070F1FBB
:10023E003F7FFF00000000000000000000000000F3
:10024E0041637469766F0045737065726100284F63
:10025E004646290028496E732900284573702900E7
:10026E002850656570290050726573696F6E3A206B
:10027E0025640056656C3A20256400543A202564A6
:10028E000045737461646F3A00656E206573706526
:10029E007261002C0045743A2025642056656C3A34
:1002AE0020256420503A202564200A2000000100F9
:1002BE002D4E414E00494E46000001000200420202
:1002CE000A0004004402080060028F0201009E042E
:1002DE00BC020000F894EE27ECBBF1E0FBBFEBBFD5
:1002EE00E5BF8DE0A2E0BB27ED938A95E9F780E0AC
:1002FE0098E0A0E6ED930197E9F7E8ECF2E085913E
:10030E009591009761F0A591B59105901590BF015B
:10031E00F00105900D920197E1F7FB01F0CFEFE5AB
:10032E00EDBFE8E0EEBFC0E6D2E00C94E503EA9341
:10033E00FA93EFB7EA93F40131964F01E991EFBFCB
:10034E00F991E9911895AA93EA93FA93EFB7EA9384
:10035E001A930A931BB10CB1E12FEC71E9F4E09101
:10036E009F02EF5FE0939F02E150F0E0E956FD4FF0
:10037E000083A0919F02A83019F4E0E0E0939F0261
:10038E00A091A102AF5FA093A102A83029F4E0E0F2
:10039E00E093A102689420F809911991E991EFBFB9
:1003AE00F991E991A99118951A93E091A102E03083
:1003BE00E1F3E091A002EF5FE093A002E150F0E0E4
:1003CE00E956FD4F1081A091A002A83019F4E0E08B
:1003DE00E093A002F894E091A102E150E093A10213
:1003EE007894E12F199108950A921A92AA93BA93CA
:1003FE00EA93FA93EFB7EA93E2EBE2BFF501319697
:10040E005F01F60131966F01E2E3F0E0EA15FB05BC
:10041E0051F4F401A5E0B0E00E94CC0E3F01882417
:10042E009924AA24BB24EAE0F0E0EC15FD0531F492
:10043E00A5E8B2E00E945E0CCC24DD24E991EFBF6A
:10044E00F991E991B991A991199009901895AA93EA
:10045E00E881E064E7B98BE18A95F1F7369A349B2F
:10046E00FECF349AE4B1F5B105C0AA93E881F0E06D
:10047E00FBBDEABD21960895BA93AA93EC97AEAD53
:10048E00BFAD119739F4FE01F096FA93EA93EEE4BC
:10049E00F2E006C0FE01F096FA93EA93E5E5F2E08B
:1004AE00FA93EA930E94640CECADFDAD309731F4F3
:1004BE000E94690CECE5F2E00E946E0CACADBDAD95
:1004CE00119731F40E94690CE2E6F2E00E946E0C84
:1004DE00ACADBDAD129731F40E94690CE8E6F2E0C6
:1004EE000E946E0CACADBDAD139731F40E94690C39
:1004FE00EEE6F2E00E946E0CFE017896FA93EA9315
:10050E00E5E7F2E0FA93EA93FE01EC5BFF4F019010
:10051E00F081E02D0E94710CFE013C96FA93EA9355
:10052E00E1E8F2E0FA93EA93FE01EA5BFF4F0190F5
:10053E00F081E02D0E94710CFE01FA93EA93E9E836
:10054E00F2E0FA93EA93E0918F02F09190020E940A
:10055E00C70E0E94070F84E00E94BC0A28960E94D4
:10056E005505E8E0EA93A0E00E94B408A0E6B2E0E8
:10057E000E947A0CAAE00E94B408DE01D0960E9476
:10058E00A308EDE2EA93AAE00E94B408DE01949675
:10059E000E947A0CA4E10E94B408DE0158960E94D3
:1005AE007A0CAEE10E94B408DE011C960E947A0C11
:1005BE00A8E20E94B408DE010E94A308EF962596D9
:1005CE000895A0E044DF2F01662777270E94DA0DF9
:1005DE00A3E2BBED89EF9EE30E945D0EA8EFB3E5AB
:1005EE0083E69EE30E945D0EADECBCEC84E191E4EB
:1005FE000E940D0E0E94A10D2F010895EF97659791
:10060E000E94330F01E010E0E7E9F2E0FA93EA937B
:10061E0080E00E94EA0A2296FE017296FA93EA930D
:10062E00A6E4B0E00E94C808FE0172960E947F0CFC
:10063E002C833D8301E010E00730E0E01E0784F4D8
:10064E00E0E0F0E00E947F0CF801DE011496EE0F60
:10065E00FF1FEA0FFB1F208331830F5F1F4FECCF6D
:10066E00AC81BD810E94A20BE0938702F0938802B9
:10067E00AE81BF810E94A20BE0938902F0938A02A1
:10068E00A885B9850E94A20BE0938B02F0938C0291
:10069E00AA85BB850E94A20BE0938D02F0938E0279
:1006AE00AC85BD850E94A20BE0939102F09392025D
:1006BE00AE85BF850E94A20BE0938F02F09390024D
:1006CE000E943A0FEF9669960895BA93AA93E3EAB9
:1006DE00F2E0FA93EA93EA81FB810E94C70E0E9430
:1006EE00070FF301662777270E94070FF20166278F
:1006FE0077270E94070F8CE00E94EA0A2E96A4E646
:10070E00B0E00E946A0D33C10E94870CA89AA99A84
:10071E00AA98AA81AADE55DFE0939302F093940281
:10072E007A926A920E948F0CA1E0B0E0A5DEA1E061
:10073E00B0E0CBDFEC81FD810E94980C48F0E8819F
:10074E00F981A0919302B0919402AE17BF0708F4FD
:10075E00DDCFA0E08ADE95C1BA93AA93A0E085DE34
:10076E00A898A998AA9A0E949F0C0E94A60CA2E093
:10077E00B0E082DEA2E0B0E0A8DFE881F981A091CE
:10078E009502B0919602EA17FB0750F3F0C00E9453
:10079E00870CA0E06ADE0E949F0CA898A998AA98E0
:1007AE000E94A60CA3E0B0E067DEA3E0B0E08DDF10
:1007BE00E881F9810E94980C70F3D9C02897E0E087
:1007CE00EABBEBBBE7BBE0EEE8BBE7E0E4BBE0E097
:1007DE00E5BBE0E2E1BBE4E0E2BBE5E0E3BFE2EB78
:1007EE00E2BFE0E0ECBFE1E8EFBDE2E0EEBDE0E04D
:1007FE00EDBDECBDE7BDE6BDEBBDEABDE9BDE8BDB7
:10080E00E2BDE5BDE4BDE3BDE1E0E9BFEBB7E06409
:10081E00EBBFE2E0E5BFE0E0E4BFE0E4EABFE0E02A
:10082E00EBB9E8E9EAB9E6E8E0BDE0E0E0BDE3E314
:10083E00E9B9E0E8E8B9E0E4E7B9E7E8E6B9E0E00D
:10084E00E0BFEDB9E6BFE4E5F0E0E883F983E0E070
:10085E00EA83EB83EC83ED83EE81EC7FEE83E37E24
:10086E00EC60EE83EF81E078E263EF83DE018CD003
:10087E0078940E94AD0CE0919502F09196020E9440
:10088E008F0CA0E0B0E0F8DDB9DE0E94AD0CE09177
:10089E008902F0918A02FA93EA93A0918B02B091A9
:1008AE008C0232DF0E94B40CA0919102B0919202A0
:1008BE0053DF0E94B40CA0918702B0918802119769
:1008CE0021F3D7CFFFCF0895AA931A93C09818E0BB
:1008DE00FADFE981E07811F0C39A01C0C398E9818B
:1008EE00EE0FE983F0DFC49AEEDFC498115081F762
:1008FE00C09A18813CC0AA93C298A881E5DF0C94D7
:10090E00C608AA93C29AA881DFDF0C94C608AA93E0
:10091E001A93E981E695E695E6951E2FE4E5E19FAB
:10092E00F001DF01EA81F0E0EA0FFB1FE093A20283
:10093E00F093A302E12F188123960895AA93E981DB
:10094E00E068AE2FD8DFE981EA93A981E0DFE064A9
:10095E00AE2FD1DF0CC0AA93E981EA93A981EEDF15
:10096E00E091A202F091A302EC55FD4FE081229698
:10097E000895AA930E94BA0C3197EC55FD4FA881A9
:10098E00A083BFDF0C94C608BA93AA930E94330FBC
:10099E00B89AC09ABC9AC498BB9ABA9AB99AC19896
:1009AE00AAE0B0E00E946A0DC19AEC81FD813097F9
:1009BE0021F1E681E3701E2FEC81FD81E681E69543
:1009CE00E695E7700E2FEC81FD81E781EF773E2FE4
:1009DE00AC81BD810E94FD0EE0936C02F0936D021E
:1009EE0012960E94FD0EE0938102F0938202AC817A
:1009FE00BD8114960E94FD0E0DC010E003E032E39F
:100A0E00E0E0F0E0E0936C02F0936D02E09381027F
:100A1E00F0938202E0938302F0938402A1E26BDFF3
:100A2E00E12FE460AE2F67DFE02FE061AE2F63DFD2
:100A3E00E32FE068AE2F5FDFA0E25DDFA1E023D001
:100A4E00E1E0E0936802E0E0E0936902E1E0E09328
:100A5E006E02E0936F02E0937002EFEFE09371028B
:100A6E00E1E0E0937802E9E7F2E0FA93EA93EFEF40
:100A7E00EA93A8E0B0E00E94090B10D0E1E00E94DA
:100A8E003A0F26960895AA93E881E03011F0ECE033
:100A9E0001C0E8E0AE2F2FDF0C94C6080E94330F82
:100AAE0030E0E0916902E03009F03FEFE0E0EA93D8
:100ABE00A0E044DF08EF11E0F8010150104030973C
:100ACE0019F0A32F56DFF8CFE0E0EA93A0E045D36C
:100ADE000E943A0F24960895AA931A93ED81EA93F1
:100AEE00AD8139DF1E2FE981E73011F0E83039F49E
:100AFE00EB81EA93AA810E94E40BEB8308C0E330FA
:100B0E0021F4EB81E095EB8302C0E03021F4EA8121
:100B1E00E0951E2302C0E23029F4EA81AB81EA237C
:100B2E001E2B0EC0E13029F4EA81AB81EA231E2789
:100B3E0007C0E43029F4EA81E095AB81EA2B1E234D
:100B4E00A12F17DF18810C94A00BAA9323970E9454
:100B5E00310FA889A43548F4AF85A03330F4AE85A3
:100B6E00A03019F0AD85A03009F4D5C1EE85E88727
:100B7E00A889BB27EE85F0E0AE0FBF1FA535E0E0DC
:100B8E00BE0720F0A889E4E5EA1BEE872D85AF8528
:100B9E00BB27ED85F0E0AE0FBF1FD19720F0AF85DC
:100BAE00E0E3EA1BED87A985A63009F05BC0EC8572
:100BBE00E13009F4B0C1E33039F4E0918302F091F1
:100BCE008402309709F4A7C10885ED85E695E69570
:100BDE00E6953E2FE22FE77019F4AD852A17E9F05E
:100BEE00A02FBB27E32FF0E00E94CC0EAA85BB8579
:100BFE000E94BD0C269526952695532F5F935F5F19
:100C0E00E22FAF91EA1748F0102FE12F1150E0308C
:100C1E0019F00E94C20CF9CFF1CFAE850A1711F16F
:100C2E00EE85AA85BB85F0E00E94BD0CED85E770D0
:100C3E0009F03F5F20E02F932F5FE32FAF91AE17A8
:100C4E0088F41E851F931F5FE02FAF91AE1718F427
:100C5E000E94C20CF7CFEE85AE81BF81F0E00E94FC
:100C6E00BD0CE9CFEF85E7703E2FED85E03009F43E
:100C7E0052C1EA85FB85EE83FF8310E00889303090
:100C8E0009F066C0AD85A83008F45DC0E985E03096
:100C9E0011F0E33009F402C0E73009F402C0E83085
:100CAE0009F402C0E93009F402C0EA3021F40A93D3
:100CBE00A88944DE04C0E63011F40E94CF0C1F93C5
:100CCE001F5FEE85AF91AE17B8F5A985A63069F412
:100CDE000E94D30CFA93EA930E94BA0C3197EC550A
:100CEE00FD4FA0810E942B0C26C0E985E93011F43E
:100CFE0050E00EC0EA3011F45FEF0AC00E94D30C30
:100D0E000E94DC0C5E2FE985E73011F0E83021F40B
:100D1E000E94E20C5E2F06C0E33011F4509502C023
:100D2E00E03019F4A52FEDDD06C00E94E60CEFEFC2
:100D3E00EA93AD85D1DEC3CFEF85E85FEF87ED8512
:100D4E00E850ED87DFC05D8520E0E0E0ED8781C0F3
:100D5E00E32FAD85AE0FA93020F42D85E0E0ED87B1
:100D6E0003C0E8E0E31B2E2F3A93A22F0E94D90B6B
:100D7E004E2FE985E63029F50E94CF0C1F931F5F99
:100D8E00EE85AF91AE17E0F40E94BA0C3197EC5598
:100D9E00FD4FE081E423AE2FE32F0E94BF0E0E9491
:100DAE00EC0CE32FA42F0E94BF0EE095E1215E2BE9
:100DBE000E94D30CFA93EA93A52F0E942B0CDECF40
:100DCE002CC0E93011F450E003C0EA30A9F45FEF13
:100DDE000E94E20CAE2FE32F0E94B70E5E2F1F93E0
:100DEE001F5FEE85AF91AE1730F40E94E60C4A936A
:100DFE00A0E072DEF4CF11C01F931F5FEE85AF919E
:100E0E00AE1758F40E94F70CAE2FE32F0E94B70EC8
:100E1E00EA934A93AD8560DEEFCFED85E03009F4BD
:100E2E007AC0AD85A83028F4ED85E21B5E2FE0E098
:100E3E0003C0532FED85E850ED8710E0EF85E85F96
:100E4E00EF87E8E0E31B2E2F0889EA85FB85EE830A
:100E5E00FF83E52FF0E0E85CFD4F4491E985E63035
:100E6E0029F50E94CF0C1F931F5FEE85AF91AE1731
:100E7E00E0F40E94BA0C3197EC55FD4FE081E4236B
:100E8E00AE2FE22F0E94B70E0E94EC0CE22FA42F81
:100E9E000E94B70EE095E1215E2B0E94D30CFA93CF
:100EAE00EA93A52F0E942B0CDECF2CC0E93011F453
:100EBE0050E003C0EA30A9F45FEF0E94E20CAE2FBF
:100ECE00E22F0E94BF0E5E2F1F931F5FEE85AF9124
:100EDE00AE1730F40E94E60C4A93A0E0FDDDF4CF8D
:100EEE0011C01F931F5FEE85AF91AE1758F40E948D
:100EFE00F70CAE2FE22F0E94BF0EEA934A93AD85F8
:100F0E00EBDDEFCFE885AA85BB85F0E0EA0FFB1F8E
:100F1E00EA87FB87AACE0E94380F619608950E9439
:100F2E00040D24F0E0E0F0E00C94E20BA881B9810E
:100F3E00A435E0E0BE0724F0E3E5F0E00C94E20B0C
:100F4E00E881F9810C94E20B0E94040D24F0E0E09C
:100F5E00F0E00C94E20BA881B981D09724F0EFE277
:100F6E00F0E00C94E20BE881F9810C94E20BBA9359
:100F7E00AA9323970E940B0D8F01002E012A19F4BC
:100F8E00E0E0F0E05FC00E94120D0F820E94120D91
:100F9E000E820E94120D0886EB85A885EA1718F4BA
:100FAE00E0E0F0E04FC0F8010F5F1F4F5491A885AD
:100FBE00BB27EE27A50FBE1FEB85F0E0EA17FB0758
:100FCE0018F0E0E0F0E03EC0EE81E695E695E6959D
:100FDE004E2FEE81E77009F04F5FEF81E030A1F008
:100FEE00A985BA85EC93A885EB85EA1BF0E0DF01B5
:100FFE00EF81F0E00E94CC0EDF01E42FF0E00E94C2
:10100E00CC0EE00FF11F1EC09801E52FF0E00E0F81
:10101E001F1FA885AF5FA887A150EB85AE1760F4A0
:10102E00F9012F5F3F4FA491B0E0E42FF0E00E9452
:10103E00CC0E0E0F1F1FEDCFF901E491A985BA85D5
:10104E00EC93F8010E94380F2C960895E0E0E0939F
:10105E006A02A0916B02BB270E94170DF0E0AE0F43
:10106E00BF1FE0916F02F0E0AE0FBF1F6DDFE09388
:10107E006B020895AA9321970E940B0D309709F4E5
:10108E0055C0AF81AA3009F44FC0EF81EA93DE015B
:10109E0017966DDFAF01309709F44AC0E0916E02EA
:1010AE00AE81EA0F3E2FA0916A02BB27F0E0EA0F55
:1010BE00FB1F8F010535E0E01E0718F0032F1127E7
:1010CE00C5DFE0916A02EA93E0916B02EA93E8854C
:1010DE00EA930E94170DEA93E1E0EA935A934A933A
:1010EE00A7E033DDE0916A02AE81EA0FEA93E09168
:1010FE006B02EA93E0916E02EA930E94170D0E9432
:10110E001E0DE0916A02EA93A0916B020E94170DE8
:10111E00EA0FEA933A93E0916F020E941E0DE4E506
:10112E00F0E0E017F10711F491DF02C000936A02BC
:10113E000E94380F28960895BA93AA931A93A981FC
:10114E00BA81ED91A983BA831E2FE03019F0A12F39
:10115E0091DFF5CF18810C94290CAA93A981BB2796
:10116E00DEDEE0936A02A881BB27EEDEE0936B021F
:10117E000C94E20BAA935D9BFECFE881ECB921960D
:10118E000895BA93AA930E94310F0E811F8128856C
:10119E003985002E012AE1F00E94DB015E2F5830C6
:1011AE0051F4AE81BF810A171B0720F42150304045
:1011BE000F5F1F4FF1CF5A3059F03F932F932F5F90
:1011CE003F4FE52FAF91BF91EC9301501040E1CF0F
:1011DE00D901E0E0EC93E885F9850E94380F2A9654
:1011EE000895BA93AA93AA81C5DFA881B9810E94F6
:1011FE005E0C0C94290CBA93AA931A930A93AA81A3
:10120E00BB8112960E94FD0E309729F1AA81BB81F7
:10121E0014960E94FD0E8F01309761F00230E0E0CF
:10122E001E0780F0F80131978F01AA81BB811496B9
:10123E00ED93FC93AA81BB8112960E945E0C3197AE
:10124E00AC81A083AA81BB810E94FD0EFF2312F008
:10125E000E945E0C06C0AA81BB81EFEFFFEFED93FB
:10126E00FC9319810881DCC1BA93AA932B970E9433
:10127E00310F10E0A989BA89E0E0F0E0ED93FC931C
:10128E00EF89F88D3196EF8BF88F3197E4912E2FF1
:10129E00E03009F462C1E12FE03039F4253211F467
:1012AE0011E002C00E94280D57C1E130A9F4253289
:1012BE0019F40E94280D4FC112E040E000E02D32DB
:1012CE0011F401E049C12B3211F44BE245C1203239
:1012DE0011F440E241C102C0E23039F450E013E0B3
:1012EE00203311F4006838C102C0E33091F420338A
:1012FE0010F02A3308F007C0AAE05A9F502DE22FB3
:10130E00E0535E0F29C12C3619F4026015E024C19A
:10131E0003C0E53009F020C1E22FE33649F40E9404
:10132E002F0DED89FE89A481AA930E94350D13C15C
:10133E00E33741F40E942F0D0E943B0D0E94190BC2
:10134E001E2F0AC0E03769F40E942F0D0E943B0D3C
:10135E000E94250B1E2F08600F77E0E0E88B30E02F
:10136E006EC0E43611F0E93611F4046002C0E537C0
:10137E00A1F4EAE0E88B01FF08C0E0E0FAEC6AE9CC
:10138E007BE30E94450D1AE022C0E0E1F7E260E047
:10139E0070E00E94450D15E01AC0E83511F40860A2
:1013AE0003C0E83709F0D7C0E0E1E88B01FF08C0C1
:1013BE00E0E0F0E060E070E10E94450D18E007C04B
:1013CE00E0E0F0E160E070E00E94450D14E001FF06
:1013DE0008C00E942F0DAD89BE8914960E94010F80
:1013EE0015C002FF0AC00E942F0DAD89BE8914964A
:1013FE000E94FD0E0E94C70E09C00E942F0DAD89DE
:10140E00BE8914960E94FD0E66277727EC87FD870E
:10141E006E877F8702FF13C0AF85AA235AF4EC852F
:10142E00FD856E857F850E94AF0EEC87FD876E87EA
:10143E007F874DE2403011F01F5F01C00B7F00FD32
:10144E0011C0151778F407FF08C002FF04C00B7F08
:10145E00242F115001C020E301C020E20E94280D6C
:10146E005150EFCF312FE889E030B9F43030A1F090
:10147E0003FF06C0EE81FF812591EE83FF8305C039
:10148E00AE81BF812D91AE83BF830E94280D503057
:10149E0009F051503150EACF54C00E944A0D0E94BB
:1014AE00D40E2E2F2A3030F003FF02C0295C01C06B
:1014BE00295A01C0205D04FD22C0213360F4A885A5
:1014CE00B9858A859B85A130E0E0BE07E0E08E07F6
:1014DE00E0E09E0709F409C0531710F000FF01C0A9
:1014EE0013C020E207FF0BC020E3006102FF07C01C
:1014FE000B7F4A930E94350D503009F051500E94D7
:10150E00280D503009F0515031500E944A0D0E9462
:10151E00F90EEC87FD876E877F87E889A885B985E8
:10152E008A859B85FF27662777270E94D40E0E9407
:10153E00450DE885F9856A857B850E94290F09F09E
:10154E00ACCF00FF08C0503031F05150E0E2EA93CA
:10155E000E94350DF8CF10E093CEA989BA890E946A
:10156E00FD0E0E94380F69960895FF92F82E269769
:10157E000E94330F0E94530D309719F4EFEFFFEFD7
:10158E001DC0DE0116960E94AB0E8D010E94530DFA
:10159E00EE83FF83E0E0E887E987DE011A960E947A
:1015AE005A0DE2E0F9E0FA93EA93DE011A965CDE58
:1015BE009F01AE81BF81E0E0EC93F9010E943A0FEA
:1015CE002A96FF900895FF92F82E26971A930A9363
:1015DE00DE0114960E94AB0E8D01E0E0EC83ED83EC
:1015EE00EE83EF83DE0118960E945A0DE8EFF8E0C5
:1015FE00FA93EA93DE01189637DE19810881289650
:10160E00FF900895BA93AA93B981A881109631F0EC
:10161E00FC81EB816A8161931197E9F7EB81FC8183
:10162E0025960895BA93AA93A991B991EE27FF270B
:10163E006D91662311F03196FBCF0895BA93AA935C
:10164E00AA27BB27E991F9910590002011F0119678
:10165E00FBCFFD010895BA93AA93BB81AA816C9129
:10166E00662361F0F981E881C895002029F0319652
:10167E006015D1F7FD0104C01196F1CFEE27FF27BB
:10168E000C94480CBA93AA93BB81AA8188279927F8
:10169E006D91662349F0F981E8810590002021F0D3
:1016AE006015D9F70196F4CFFC010C94480CBA934F
:1016BE00AA931A930A93EC81FD81309779F4E09105
:1016CE009C04F0919D04309719F4E0E0F0E02FC0F7
:1016DE00E0919C04F0919D04EC83FD830E94630DC8
:1016EE000E94490BAC81BD81EA0FFB1FEC83FD8389
:1016FE00AC81BD81EC91E03041F4E0E0E0939C04DC
:10170E00E0939D04E0E0F0E012C00E94630D0E94A1
:10171E00320B8F01309729F0D8010F5F1F4FE0E099
:10172E00EC9300939C0410939D04EC81FD81198130
:10173E00088126960895BA93AA93B981A881EC914F
:10174E008A2FAE2F0E94530CA82FEE2311F0119664
:10175E00F6CFE894EC91ED3211F4689402C0EB32BE
:10176E0009F4119666277727EC918A2FAE2F0E94E7
:10177E004A0CA82FEE2379F0FB01660F771F660F38
:10178E00771F6E0F7F1F660F771FED91FF27E053B8
:10179E006E0F7F1FE9CFFB011EF4E095F095319699
:1017AE0022960895AA93E881F0E0E85CFD4FA4919B
:1017BE00E9810E94B70E22960895AA931A93E981A1
:1017CE00E73011F0EA3019F41091680209C0E930DF
:1017DE0019F41091690204C0E830A1F41091780256
:1017EE00E0916902E03049F0103019F0EFEF188106
:1017FE0029C0EA81E095188125C0103019F4E0E087
:10180E00188120C0EA8118811DC0BA93AA93EA817B
:10181E00E13021F4E881F981E49114C0E23029F439
:10182E00A881B9810E940C0F0DC0E33041F4A8814C
:10183E00B981E0918102F0918202099503C0A881DD
:10184E00B981EC9123960895AA93EB81E03029F4A7
:10185E00E881A981BA81EC9314C0E23031F4E881B9
:10186E00A981BA810E94180F0CC0E33051F4E981AE
:10187E00FA81FA93EA93AA81E0918302F0918402AD
:10188E00099524960895AA93E1E0F991F03310F0AA
:10189E00FA3308F0EE270895AA93E1E0F991F032B9
:1018AE0029F0F93010F0FE3008F0EE270895ED9192
:1018BE00FD913196FE93EE93089580E00E94BC0A4E
:1018CE0024960895FE01B496FA93EA930895FA9336
:1018DE00EA93F3CF662777270E94070F84E00E94D2
:1018EE00BC0A289608950E94A308E8E0EA9308959A
:1018FE00FA93EA93A1EAB2E00E945E0B9F0108956B
:10190E00BA93AA93E0E0E0938502E09386020895ED
:10191E00FA93EA93E0918702F0918802FA93EA93A0
:10192E000895A0918502B0918602AE17BF07089563
:10193E000E94E802E0939502F093960208957A923F
:10194E006A92E0919502F0919602E2CFE0918D02BB
:10195E00F0918E02FA93EA930895A0918F02B091BE
:10196E0090020C94CE03A2EAB2E0A1CFEA0FFB1FC5
:10197E00EE83FF830895EC85EA93EF81F885319627
:10198E00EF83F8873197FA93EA93A0E00C942B0C2F
:10199E000A93A8890C948E04EC85EA93EF81F8855E
:1019AE003196EF83F8873197089566277727DF0101
:1019BE00CB010C940C0C5A93AA850C94E40B0A934D
:1019CE000395E889EA935A9308955E2FEC85EA937E
:1019DE00AF81B885882799270E940C0C1E2E08957A
:1019EE000A930395E889EA93EE85EA93E985FA85E9
:1019FE003196E987FA873197D8CFBA93AA93A881FF
:101A0E00B9810E942D0F08950E94310FE0916C0252
:101A1E00F0916D020895F8010F5F1F4F0490089525
:101A2E00E0916C02F0916D023196E4910895EA9383
:101A3E00E0E0EA93E0E0F0E0FA93EA93A9E00C9498
:101A4E00AC052A93AA89BB89EC89FD89099508956D
:101A5E00ED89FE893497ED8BFE8B0895AA89BB899B
:101A6E00EC89FD8909950895AD89BE8914960E9469
:101A7E00FD0EEE83FF83AE81BF810895E887F9875F
:101A8E006A877B870895E885F9856A857B85AC85AD
:101A9E00BD858E859F850895DE011C960E94AB0E36
:101AAE000E94FD0E08950E94AB0E0E94FD0EFA9349
:101ABE00EA931A930A930895EC81FD81FA93EA93BF
:101ACE00AC81BD810895109639F080ED97E00197B5
:101ADE00F1F7A8951197C9F70895552342F4503898
:101AEE0011F4E0FF04C03196691F791F6BF050E8C6
:101AFE00572711F45F93C8C05F3F31F0660F000C9B
:101B0E0057956795752F08955F9300200AF0C8C00A
:101B1E00C1C050E8192E1522880F991F9527550F11
:101B2E00879550E8072E0522660F771F7527550FEC
:101B3E0067950895689401C0E8945F93F2DF70385A
:101B4E0018F07F3F08F4A0C056E1571BAAF4519538
:101B5E0058300EF4593030F0EFEFFFEF6FEF7FE7B4
:101B6E0077F91AC077275523B9F0EE0FFF1F661FBE
:101B7E00771F5A95D1F710C07727583028F0EF2FDE
:101B8E00F62F672F5850F9CF552331F0769567957C
:101B9E00F795E7955A95D1F700200AF4D9D05F91C1
:101BAE000895689401C0E894309760407040B1F099
:101BBE00002426F0772312F40094CAD0172E7EE16B
:101BCE00112032F07A95EE0FFF1F661F111CF9CF10
:101BDE00EF2FF62F612D5F938ADF5F9108954F935C
:101BEE00AF01FD01DA01AB01BC01CA01402D012C90
:101BFE00142E4F910895EA0FFB1F681F0895E0956C
:101C0E00F0956095EF5FFF4F6F4F08955F9381DF03
:101C1E00903839F1703821F1572F591B2BF112F4EE
:101C2E00DEDFFACF583118F0AA27BB2788275830A5
:101C3E0028F0AB2FB82F88275850F9CF552329F00D
:101C4E008695B795A7955A95D9F7502D512572F0CF
:101C5E00D2DF38F46795F795E795739513F420C0A6
:101C6E00BEDF45DF5F910895D8F7FBCFEA1BFB0B74
:101C7E00680B51F010F40094C2DF662392F3EE0F5E
:101C8E00FF1F661F7A95CBF7EE27FF27662777276C
:101C9E005F910895EFEFFFEF6FE77FEF5F9108958C
:101CAE00EFEFFFEF6FE77FE75F9108955F9331DF0F
:101CBE00703851F3903841F301240894791F23F4BE
:101CCE001CF300203AF3ECCF0F921F932F933F9308
:101CDE004F93112722279927689FA0018F9F302DA0
:101CEE00410D591F6B9F300D411D591F8E9F27D0DF
:101CFE00BF9F25D06A9F23D0BE9F1DD0AF9F1BD004
:101D0E00AE9F110D291F391F491F591FE32FF42FA5
:101D1E00652F522F4F913F912F911F910F90662358
:101D2E002AF0550FEE1FFF1F661F02C073954BF270
:101D3E00D4DE5F910895100D211D391F02C0200DB4
:101D4E00311D491F591F08950024AF0DB01D089570
:101D5E00F09560957095E195FF4F6F4F7F4F089509
:101D6E00EE230E2EEA2F19F0EE0F0A94E9F70895DE
:101D7E00EE230E2EEA2F19F0E6950A94E9F7089550
:101D8E006F2F660F660B762F0895FA9FF02DEB9F3F
:101D9E00F00DEA9FE02DF10D08953F934F935F9361
:101DAE00002411244427552730E2AA0FBB1F881F99
:101DBE00991F001C111C441F551F0E1A1F0A460B9B
:101DCE00570B28F40E0E1F1E461F571F01C0A16091
:101DDE003A9559F7FD01BC01D001CA015F914F91AF
:101DEE003F910895DADFFD01BC010895ED91FC915C
:101DFE0011970895ED91FD916D917C911397089532
:101E0E007A936A93FA93EA930895E199FECFFF933A
:101E1E00FFB7F894AEBBBFBBE09AEDB3FFBFFF9127
:101E2E000895E19B02C0A895FCCF9FB7F894AEBB76
:101E3E00BFBBE09A8DB3E81719F0EDBBE29AE19AB9
:101E4E009FBF0895309760407040089500240A1691
:101E5E000B0608955A934A933A932A931A930A9328
:101E6E0008955D814C813B812A81198108810895F5
:00000001FF
